:100000000C9433000C9400000C9400000C9400003D
:100010000C9400000C9400000C9400000C94000060
:100020000C9400000C9400000C9400000C94000050
:100030000C9400000C9400000C9400000C94000040
:100040000C9400000C9400000C9400000C94000030
:100050000C9400001027E80364000A00010000105F
:10006000000110000100F894EE27ECBBF1E0FBBFAB
:10007000EBBFE5BF8DE0A2E0BB27ED938A95E9F7E2
:1000800080E098E0A0E6ED930197E9F7EFE5EDBF9A
:10009000E8E0EEBFC0E6D2E00C94BE00AA93E8818F
:1000A000E064E7B98BE18A95F1F7369A349BFECF8D
:1000B000349AE4B1F5B121960895BA93AA932297A0
:1000C000E0E0E883E9830E94520200E010E020E0D3
:1000D00030E040E050E000E010E00A30E0E01E07D1
:1000E00044F4A885DBDF9F01420F531F0F5F1F4FB2
:1000F000F4CFFA010E942E020E946101DF01CB01C0
:10010000E0E0F0E060E271E40E94DD01DE011696BD
:100110000E942A01ED93FC93EE81FF810E94590217
:100120002A960895BA93AA93A881B9810E944E0293
:1001300064F4A030E1E0BE0724F0EFEFF0E0E883E4
:10014000F983E881EABD969817C0E881F981AFEF9D
:10015000BFEF0E943B02E883F983A881B981A030F8
:10016000E1E0BE0724F0EFEFF0E0E883F983A88137
:10017000EFEFEA1BEABD969A229608952297EFEFD9
:10018000E1BBE0E0E2BBE1E8EFBDEBE0EEBDE0E0CB
:10019000E9BFE0E4E7B9E3E8E6B9E0E0E0BFA0E00A
:1001A000B0E08BDF8F01A1E0B0E087DF9F01F801B5
:1001B000E21BF30BE883F9830E942E020E94610187
:1001C000A0E0B0E080E89FE30E948F010E942A0136
:1001D000AF01DA01A7DFA1E0B0E00E94F100DFCFBC
:1001E000FFCF109639F080ED97E00197F1F7A895D1
:1001F0001197C9F70895552342F4503811F4E0FFE0
:1002000004C03196691F791F6BF050E8572711F42D
:100210005F9373C05F3F31F0660F000C5795679591
:10022000752F08955F9300200AF073C06CC050E8EA
:10023000192E1522880F991F9527550F879550E87D
:10024000072E0522660F771F7527550F67950895AE
:10025000689401C0E8945F93F2DF703818F07F3F34
:1002600008F44BC056E1571BAAF4519558300EF4D0
:10027000593030F0EFEFFFEF6FEF7FE777F91AC0FB
:1002800077275523B9F0EE0FFF1F661F771F5A958A
:10029000D1F710C07727583028F0EF2FF62F672FAF
:1002A0005850F9CF552331F076956795F795E79536
:1002B0005A95D1F700200AF4C9D05F910895689447
:1002C00001C0E894309760407040B1F0002426F0FF
:1002D000772312F40094BAD0172E7EE1112032F069
:1002E0007A95EE0FFF1F661F111CF9CFEF2FF62F27
:1002F000612D5F938ADF5F910895EE27FF276627C0
:1003000077275F910895EFEFFFEF6FE77FEF5F9142
:100310000895EFEFFFEF6FE77FE75F9108955F9339
:1003200086DF703851F3903841F301240894791F27
:1003300023F41CF300203AF3ECCF0F921F932F937A
:100340003F934F93112722279927689FA0018F9FE2
:10035000302D410D591F6B9F300D411D591F8E9F30
:1003600027D0BF9F25D06A9F23D0BE9F1DD0AF9FAF
:100370001BD0AE9F110D291F391F491F591FE32F95
:10038000F42F652F522F4F913F912F911F910F9076
:1003900066232AF0550FEE1FFF1F661F02C07395DC
:1003A0004BF229DF5F910895100D211D391F02C006
:1003B000200D311D491F591F08955F9338DF703894
:1003C00021F411200AF49FCFA4CF903809F495CFDF
:1003D00001240894970B1BF4D4F30020F3CF792F5A
:1003E0001F932F933F934F931124112722273327D5
:1003F0004427552790E2AE17BF078607410730F024
:10040000AE1BBF0B860B410B089401C08894551F8F
:10041000221F331F111CAA1FBB1F881F441F9A9540
:1004200051F7F901612D4F913F912F911F91662353
:1004300032F0550FEE1FFF1F661F7A9543F2DBDE89
:100440005F910895F195E195F0400895F0956095DC
:100450007095E195FF4F6F4F7F4F08956F2F660F97
:10046000660B762F0895FA9FF02DEB9FF00DEA9F13
:10047000E02DF10D089504D0F6DF0EF4E3DF0895CA
:10048000E894F7FF02C0DEDF6894B7FF06C0A095CE
:10049000B095119600F8039400FA089500240A1606
:1004A0000B0608955A934A933A932A931A930A9300
:1004B00008955D814C813B812A81198108810895CD
:00000001FF
